S01600004C43445F4F5343494C53434F50452E73726563E8
S11300000C942A000C9457010C947E010C94A501C5
S11300100C9447000C9447000C9418050C9447006A
S11300200C9447000C9447000C94CD040C94A60443
S11300300C9447000C9447000C9447000C94470020
S11300400C9447000C9447000C9447000C94470010
S11300500C94470011241FBECFE5D8E0DEBFCDBF0E
S113006010E0A0E6B0E0E4EFFCE002C005900D92E1
S1130070AE39B107D9F720E0AEE9B0E001C01D9276
S1130080A83BB207E1F70E9456030C9478060C943F
S11300900000423008F06DC04130A1F5813089F094
S11300A028F08230C9F0833011F108952AB381E039
S11300B090E002C0880F991F6A95E2F7822B8ABBF1
S11300C0089527B381E090E002C0880F991F6A95D4
S11300D0E2F7822B87BB089524B381E090E002C04D
S11300E0880F991F6A95E2F7822B84BB089521B388
S11300F081E090E002C0880F991F6A95E2F7822B95
S113010081BB0895813091F028F08230D9F083309A
S113011029F108952AB381E090E002C0880F991F65
S11301206A95E2F7809582238ABB089527B381E01C
S113013090E002C0880F991F6A95E2F780958223A8
S113014087BB089524B381E090E002C0880F991F13
S11301506A95E2F78095822384BB089521B381E0F8
S113016090E002C0880F991F6A95E2F78095822378
S113017081BB0895423008F06DC04130A1F5813053
S113018089F028F08230C9F0833011F108952BB33F
S113019081E090E002C0880F991F6A95E2F7822BF4
S11301A08BBB089528B381E090E002C0880F991FAB
S11301B06A95E2F7822B88BB089525B381E090E02D
S11301C002C0880F991F6A95E2F7822B85BB0895B8
S11301D022B381E090E002C0880F991F6A95E2F78C
S11301E0822B82BB0895813091F028F08230D9F0BF
S11301F0833029F108952BB381E090E002C0880F89
S1130200991F6A95E2F7809582238BBB089528B3E2
S113021081E090E002C0880F991F6A95E2F780950B
S1130220822388BB089525B381E090E002C0880F43
S1130230991F6A95E2F78095822385BB089522B3BE
S113024081E090E002C0880F991F6A95E2F78095DB
S1130250822382BB0895813041F028F0823039F046
S1130260833039F008956ABB089567BB089564BB71
S1130270089561BB089585B7886085BF85B784609C
S113028085BF85B7826085BF85B7816085BF84B728
S1130290806484BF08950E94D6018BB780648BBFAD
S11302A008950E94D6018BB780688BBF08951F9272
S11302B00F920FB60F9211242F933F934F935F9396
S11302C06F937F938F939F93AF93BF93EF93FF931A
S11302D0E091AB00F091AC000995FF91EF91BF91D3
S11302E0AF919F918F917F916F915F914F913F91CA
S11302F02F910F900FBE0F901F9018951F920F9281
S11303000FB60F9211242F933F934F935F936F93E4
S11303107F938F939F93AF93BF93EF93FF93E0915A
S1130320AD00F091AE000995FF91EF91BF91AF91AF
S11303309F918F917F916F915F914F913F912F91F9
S11303400F900FBE0F901F9018951F920F920FB62B
S11303500F9211242F933F934F935F936F937F9347
S11303608F939F93AF93BF93EF93FF93E091AF006D
S1130370F091B0000995FF91EF91BF91AF919F91DA
S11303808F917F916F915F914F913F912F910F903A
S11303900FBE0F901F9018959093AC008093AB0004
S11303A008959093AE008093AD0008958FB7806850
S11303B08FBF08950F931F93CF93DF9300D000D086
S11303C0CDB7DEB7082F84E0898385E08A8386E091
S11303D08B8387E08C8310E014C0402F50E0012E03
S11303E002C0559547950A94E2F74170E1E0F0E0C8
S11303F0EC0FFD1FE10FF11D608180E00E94BA0047
S11304001F5F143050F30F900F900F900F90DF91F7
S1130410CF911F910F91089541E062E081E00E9425
S1130420BA008FE39FE10197F1F700C0000040E0BC
S113043062E081E00E94BA000895CF93C82F40E0A3
S113044060E081E00E94BA0040E061E081E00E9447
S1130450BA008C2F82958F700E94DA010E940C02E0
S11304608C2F0E94DA010E940C02CF910895CF9341
S1130470C82F41E060E081E00E94BA0040E061E002
S113048081E00E94BA008C2F82958F700E94DA015D
S11304900E940C028C2F0E94DA010E940C02CF9160
S11304A008952FEF83EF91E0215080409040E1F7D1
S11304B000C0000082E00E94DA010E940C0282E087
S11304C00E94DA010E940C0288E00E94DA010E9474
S11304D00C028CE00E941D0281E00E941D0208951E
S11304E00F931F93CF938C01C0E003C00E94370287
S11304F0CF5FF801EC0FF11D80818111F7CFCF910F
S11305001F910F910895EF92FF921F93CF93DF9362
S1130510CDB7DEB760970FB6F894DEBF0FBECDBF80
S11305207C01892B19F480E30E94370210E02FC06C
S11305309701ADECBCEC0E9469069695879596955B
S11305408795969587959C01220F331F880F991FD5
S1130550880F991F880F991F820F931F9701281BDB
S1130560390BC901E1E0F0E0EC0FFD1FE10FF11DD3
S113057017FDFA95805D80831F5F97010E946906CD
S11305807C01F694E794F694E794F694E794E114E6
S1130590F10471F611500CC0E1E0F0E0EC0FFD1F26
S11305A0E10FF11D17FDFA9580810E943702115069
S11305B0112394F760960FB6F894DEBF0FBECDBF3B
S11305C0DF91CF911F91FF90EF90089590E4699F80
S11305D0800D112480680E941D020895EF92FF92FD
S11305E00F931F93CF93DF93D82F8B01F42EE22E1A
S11305F0880F880F880F8F7780640E941D02C0E0E7
S113060007C0F801EC0FF11D80810E943702CF5F13
S1130610C830B8F36E2D8F2D0E94E6028D2F0E94F4
S11306203702DF91CF911F910F91FF90EF900895C2
S113063080918000843628F4865F80938000109235
S1130640A6000895809180008B3028F08A50809312
S113065080001092A60008958091A6008F5F809379
S1130660A600813029F480E090E00E94FB04089504
S1130670823071F40E940A059093B5008093B4000F
S113068080E090E00E94FB0480E00E94FE04089554
S1130690833059F481E00E94FE040E940A0590937D
S11306A0B3008093B2001092A600089560EF80E03A
S11306B00E942B0141E060E081E00E94490041E09A
S11306C061E081E00E94490041E062E081E00E9433
S11306D049000E9451020E943B010E944B010E946A
S11306E0510188E193E00E94CC0182E293E00E94F0
S11306F0D10181E00E94FE040E940D0585E00E9464
S1130700F4048CE293E00E94130541E063E081E08D
S11307100E94490040E066E083E00E94490040E016
S113072062E083E00E94490040E063E083E00E94CD
S11307304900809180000E947D0461E080E00E9475
S1130740E60281E890E00E9470028091800090E0CF
S11307500E94830285E20E94370261E088E00E94E1
S1130760E60285E890E00E94700261E085E10E9463
S1130770E60282E990E00E9470028091B2009091BA
S1130780B3000E94830261E08DE10E94E60287E9E2
S113079090E00E9470022091B2003091B30080E09A
S11307A091E0821B930B0E94830280918000843627
S11307B0D9F420E040E060E670E080E00E94EE02C0
S11307C0C1E008C020E04C2F68E770E081E00E949F
S11307D0EE02CF5FC732B0F320E047E268E670E094
S11307E082E00E94EE026CC0811166C020E040E00D
S11307F068E670E082E00E94EE02C1E008C020E0FA
S11308004C2F60E770E081E00E94EE02CF5FC732B8
S1130810B0F320E047E260E670E080E00E94EE0280
S11308204FC020E04D2F60E670E080E00E94EE02B1
S1130830C1E0CD0F08C020E04C2F68E770E081E0F4
S11308400E94EE02CF5F2C2F30E0809180004DECAF
S1130850849F412D11244695469546950D2F10E011
S1130860B801640F711DC9018617970724F34D0F52
S113087020E068E670E082E00E94EE028091800051
S1130880CDEC8C9FC12D1124C695C695C695CD0F70
S1130890CF5F08C020E04C2F60E770E083E00E9447
S11308A0EE02CF5F8C2F90E09801265F3F4F8217B6
S11308B0930784F3D65F01C0D0E0D83208F4B1CFF7
S11308C021E046E06EE970E084E00E94EE0221E05F
S11308D04BE16EE970E084E00E94EE0221E044E224
S11308E06EE970E084E00E94EE0223CF93B7987F14
S11308F093BF93B7892B83BF0895CF93C82F85E007
S113090090E00E94760483B7886083BF83B78064D5
S113091083BF83B78F7E83BF83B7806283BF6C2F0F
S113092070E080E090E00E9470052AE037ED43E239
S113093050E40E94FC050E943F056CBF08B601FE0E
S1130940FDCF88B7826088BFCF9108951F920F9220
S11309500FB60F9211242F933F934F935F936F938E
S11309607F938F939F93AF93BF93EF93FF93E09104
S1130970A900F091AA000995FF91EF91BF91AF9161
S11309809F918F917F916F915F914F913F912F91A3
S11309900F900FBE0F901F9018951F920F920FB6D5
S11309A00F9211242F933F934F935F936F937F93F1
S11309B08F939F93AF93BF93EF93FF93E091A7001F
S11309C0F091A8000995FF91EF91BF91AF919F918C
S11309D08F917F916F915F914F913F912F910F90E4
S11309E00FBE0F901F9018959EB5987F9EBD9EB523
S11309F0892B8EBD08951DBC1CBC0895811104C0B3
S1130A008EB58F7B8EBD0895813019F48EB58064C8
S1130A108EBD089586B597B508950E94D60189B70D
S1130A20806289BF08959093B7008093B6000895BB
S1130A301F920F920FB60F9211242F933F934F934F
S1130A405F936F937F938F939F93AF93BF93EF9332
S1130A50FF93E091B600F091B7000995FF91EF91F3
S1130A60BF91AF919F918F917F916F915F914F91C2
S1130A703F912F910F900FBE0F901F9018950E94D9
S1130A80DB0588F09F5798F0B92F9927B751B0F03C
S1130A90E1F0660F771F881F991F1AF0BA95C9F7FE
S1130AA014C0B13091F00E94F505B1E008950C94A2
S1130AB0F505672F782F8827B85F39F0B93FCCF355
S1130AC0869577956795B395D9F73EF4909580957B
S1130AD0709561957F4F8F4F9F4F0895E89409C09B
S1130AE097FB3EF490958095709561957F4F8F4F5D
S1130AF09F4F9923A9F0F92F96E9BB279395F69573
S1130B00879577956795B795F111F8CFFAF4BB0FF0
S1130B1011F460FF1BC06F5F7F4F8F4F9F4F16C054
S1130B20882311F096E911C0772321F09EE8872FDE
S1130B30762F05C0662371F096E8862F70E060E09A
S1130B402AF09A95660F771F881FDAF7880F969513
S1130B50879597F9089597F99F6780E870E060E0BA
S1130B6008959FEF80EC089500240A941616170642
S1130B7018060906089500240A941216130614068A
S1130B8005060895092E0394000C11F4882352F0ED
S1130B90BB0F40F4BF2B11F460FF04C06F5F7F4FA5
S1130BA08F4F9F4F089557FD9058440F551F59F08C
S1130BB05F3F71F04795880F97FB991F61F09F3F46
S1130BC079F087950895121613061406551FF2CF6F
S1130BD04695F1DF08C0161617061806991FF1CFBF
S1130BE086957105610508940895E894BB276627E6
S1130BF07727CB0197F908950E940F060C94C2053C
S1130C000E94B40538F00E94BB0520F0952311F032
S1130C100C94AB050C94B10511240C94F6050E94B8
S1130C20D30570F3959FC1F3950F50E0551F629F54
S1130C30F001729FBB27F00DB11D639FAA27F00D31
S1130C40B11DAA1F649F6627B00DA11D661F829F58
S1130C502227B00DA11D621F739FB00DA11D621F3D
S1130C60839FA00D611D221F749F3327A00D611D5A
S1130C70231F849F600D211D822F762F6A2F11243C
S1130C809F5750409AF0F1F088234AF0EE0FFF1F6F
S1130C90BB1F661F771F881F91505040A9F79E3FC6
S1130CA0510580F00C94AB050C94F6055F3FE4F31A
S1130CB0983ED4F3869577956795B795F795E7951C
S1130CC09F5FC1F7FE2B880F911D9695879597F925
S1130CD00895A29FB001B39FC001A39F700D811D11
S1130CE01124911DB29F700D811D1124911D089531
S1070CF0F894FFCFA2
S1130CF40704040404041C1C1C040404040407075B
S1130D040000000000001F1F1F000000000000007E
S1130D143244433D00467265713D36312E333448C6
S1110D247A00546F6E3D00546F66663D000009
S9030000FC
